:10000000A9EF13F00000000000EF00F00000000076
:0A0010000000000000000000F3D71C
:0E001C000001FDB102D08B9801D08B8812003C
:0E002A000001FDB102D08B9601D08B86120032
:0E0038000001FDB102D08D9601D08D86120020
:0E0046000001FDB102D0899401D0898412001E
:0E0054000001FDB102D08B9C01D08B8C1200FC
:0E0062000001FDB102D08B9401D08B841200FE
:0E0070000001FDB102D08B9A01D08B8A1200E4
:0E007E000001FDB102D08B9E01D08B8E1200CE
:0E008C000001FDB102D08A9201D08A821200DA
:0E009A000001FDB102D08D9401D08D841200C2
:0E00A8000001FDB102D08F9201D08F821200B4
:0E00B6000001FDB102D08F9401D08F841200A2
:0E00C4000001FDB102D08B9801D08B88120094
:0E00D2000001FDB102D08B9601D08B8612008A
:0E00E0000001FDB102D08A9401D08A84120082
:0E00EE000001FDB102D08B9801D08B8812006A
:0E00FC000001FDB102D08B9601D08B86120060
:0E010A000001FDB102D08F9001D08F80120055
:0E0118000001FDB102D08B9A01D08B8A12003B
:0E0126000001FDB102D08B9801D08B88120031
:0E0134000001FDB102D08B9801D08B88120023
:0E0142000001FDB102D08B9601D08B86120019
:0E0150000001FDB102D08B9201D08B82120013
:0E015E000001FDB102D08B9A01D08B8A1200F5
:0E016C000001FDB102D08D9001D08D801200F7
:10017A000F0121B302D00000FBD7FDC01CFF120003
:0E018A00ACB202D00000FCD7FDC0ADFF1200E9
:0E0198000001FDB102D08B9001D08B801200CF
:0E01A6000001FDB102D0899001D089801200C5
:0E01B4000001FDB102D0899801D089881200A7
:0E01C2000001FDB102D0899201D089821200A5
:0E01D0000001FDB102D08B9601D08B8612008B
:0E01DE000001FDB102D08D9201D08D82120081
:0E01EC000001FDB102D08B9801D08B8812006B
:0E01FA000001FDB102D08B9E01D08B8E120051
:0E0208000001FDB102D08A9001D08A80120060
:0E0216000001FDB102D08B9601D08B86120044
:0E0224000001FDB102D08B9C01D08B8C12002A
:10023200F250026EF29E0500FF6A0150FE6E0050FF
:08024200FD6E02BEF28E1200F7
:10024A0068B409D01F0E6614016E0150000A03E15A
:0A025A00010E006E01D0006A1200D0
:10026400C7B409D01F0EC514016E0150000A03E182
:0A027400010E006E01D0006A1200B6
:0A027E00000E84B4010E006E1200A1
:0A028800000E82BE010E006E12008F
:0A029200000E82BC010E006E120087
:0A029C00000E82B6010E006E120083
:0A02A600000E80B4010E006E12007D
:0A02B000000E82B6010E006E12006F
:0A02BA00000E81B2010E006E12006A
:0A02C400000E82B8010E006E120059
:0A02CE00000E82B8010E006E12004F
:0A02D800000E84B6010E006E120045
:0A02E200000E80B2010E006E120043
:0A02EC00000E82B6010E006E120033
:0A02F600000E82BE010E006E120021
:1003000066C0F9F067C0FAF068C0FBF069C0FCF0A5
:10031000A19A6686A1BA1FD00001665167116811C3
:10032000691118E0F951FA11FB11FC110CE1A8C098
:10033000E1FFA9C0E2FF030EE66EA6C000F0A7C071
:1003400001F077DF08D0010E0001F95F000EFA5BC3
:10035000FB5BFC5BDFD700016ACFF8F0F751000AC6
:1003600002E1668A01D0669AA19A668866C0F9F0B1
:1003700067C0FAF068C0FBF069C0FCF0A1BA1ED0FB
:10038000665167116811691118E0F951FA11FB11F2
:10039000FC110CE1A8C0E1FFA9C0E2FF030EE66E6C
:1003A000A6C000F0A7C001F044DF08D0010E000194
:1003B000F95F000EFA5BFB5BFC5BE0D7F8C000F076
:0203C000120029
:0A03C200000E82B6010E006E12005C
:0A03CC00000E82BC010E006E12004C
:0A03D600000E82B8010E006E120046
:0A03E000000E80B8010E006E12003E
:0A03EA00000E84B2010E006E120036
:0403F400C5841200AA
:0A03F800000E82BA010E006E120022
:10040200A19AF7C06AFF66C0F8F067C0F9F068C049
:10041200FAF069C0FBF068A421D0000166516711AF
:10042200681169111AE0F851F911FA11FB110EE184
:10043200A8C0E1FFA9C0E2FF040EE66EA6C000F06C
:10044200A7C001F0F5DE010E006E3AD0010E0001E8
:10045200F85F000EF95BFA5BFB5BDDD766C0F8F074
:1004620067C0F9F068C0FAF069C0FBF0A1BA21D008
:10047200000166516711681169111AE0F851F9110A
:10048200FA11FB110EE1A8C0E1FFA9C0E2FF040EC0
:10049200E66EA6C000F0A7C001F0CADE010E006E33
:1004A2000FD0010E0001F85F000EF95BFA5BFB5BF7
:1004B200DDD766BC02D0006A03D06684020E006EED
:0204C200120026
:1004C40066C0F7F067C0F8F068C0F9F069C0FAF0E8
:1004D400668266A21FD00001665167116811691116
:1004E40018E0F751F811F911FA110CE1A8C0E1FF75
:1004F400A9C0E2FF060EE66EA6C000F0A7C001F098
:1005040096DE08D0010E0001F75F000EF85BF95B80
:06051400FA5BDFD71200C4
:10051A005CC0F7F05DC0F8F05EC0F9F05FC0FAF0B9
:10052A00C582C5A21FD05C505D105E105F1019E035
:10053A000001F751F811F911FA110CE1ACC0E1FF11
:10054A00ADC0E2FF060EE66EAAC000F0ABC001F035
:10055A006BDE08D0010E0001F75F000EF85BF95B55
:06056A00FA5BDFD712006E
:080570000AAE029E000E12000B
:100578000B820BAEC6EF02F00368026801680068E0
:080588000A360232FF0E1200D8
:100590000B840BAED3EF02F0010E036E026A016A08
:0A05A000006A0A360232FF0E120054
:0A05AA00000E82B4010E006E120074
:0405B4006684120047
:0E05B800026A016A006A086A036A000E1200F5
:0A05C600000E81B4010E006E120059
:0A05D000000E86B4010E006E12004A
:0A05DA00000E86B0010E006E120044
:0A05E400000E82B8010E006E120036
:0A05EE00000E82BA010E006E12002A
:1005F8005CC0F9F05DC0FAF05EC0FBF05FC0FCF0D3
:100608009E96C5869EB61FD05C505D105E105F102A
:1006180019E00001F951FA11FB11FC110CE1ACC011
:10062800E1FFADC0E2FF030EE66EAAC000F0ABC06A
:1006380001F0FBDD08D0010E0001F95F000EFA5B46
:10064800FB5BFC5BDFD70001C9CFF8F0F751000A6C
:1006580002E1C58A01D0C59A9E96C5885CC0F9F0AA
:100668005DC0FAF05EC0FBF05FC0FCF09EB61FD024
:100678005C505D105E105F1019E00001F951FA112D
:10068800FB11FC110CE1ACC0E1FFADC0E2FF030EB1
:10069800E66EAAC000F0ABC001F0C7DD08D0010EBD
:1006A8000001F95F000EFA5BFB5BFC5BDFD7F8C06B
:0406B80000F012003C
:1006BC009E96F7C0C9FF5CC0F8F05DC0F9F05EC053
:1006CC00FAF05FC0FBF0C7A421D05C505D105E1047
:1006DC005F101BE00001F851F911FA11FB110EE14A
:1006EC00ACC0E1FFADC0E2FF040EE66EAAC000F0A4
:1006FC00ABC001F098DD010E006E3AD0010E000186
:10070C00F85F000EF95BFA5BFB5BDDD75CC0F8F0C1
:10071C005DC0F9F05EC0FAF05FC0FBF09EB621D070
:10072C005C505D105E105F101BE00001F851F91178
:10073C00FA11FB110EE1ACC0E1FFADC0E2FF040EFB
:10074C00E66EAAC000F0ABC001F06DDD010E006ECC
:10075C000FD0010E0001F85F000EF95BFA5BFB5B3A
:10076C00DDD7C5BC02D0006A03D0C584020E006E72
:02077C00120069
:0A077E00000E82B8010E006E12009A
:0A078800000E86B2010E006E120092
:0A079200000E82B6010E006E120088
:0A079C00000E81B0010E006E120085
:0A07A600000EACB2010E006E12004E
:1007B0001DCF01F00F0122A302D02299228901C08E
:0407C00000F0120033
:0A07C400000EA4BA010E006E120030
:0A07CE00000E9EBA010E006E12002C
:1007D8005CC0F9F05DC0FAF05EC0FBF05FC0FCF0F1
:1007E8000001F76BF86BF851120802E1F7518E0817
:1007F80008E334DD005201E004D00001F74BF82B88
:10080800F2D70001120EF85D02E18F0EF75D03E3E7
:100818007B0E006E24D0C580C5A020D05C505D1032
:100828005E105F101AE0F951FA11FB11FC110EE18C
:10083800ACC0E1FFADC0E2FF050EE66EAAC000F055
:10084800ABC001F0F2DC010E006E09D0010E000110
:10085800F95F000EFA5BFB5BFC5BDED7006A1200F7
:1008680066C0F9F067C0FAF068C0FBF069C0FCF038
:100878000001F76BF86BF851120802E1F7518E0886
:1008880008E3DFDC005201E004D00001F74BF82B4D
:10089800F2D70001120EF85D02E18F0EF75D03E357
:1008A8007B0E006E24D0668066A020D0665167114A
:1008B800681169111AE0F951FA11FB11FC110EE1E6
:1008C800A8C0E1FFA9C0E2FF050EE66EA6C000F0D1
:1008D800A7C001F0AADC010E006E09D0010E0001CC
:1008E800F95F000EFA5BFB5BFC5BDED7006A120067
:1008F800AECF01F0ABA202D0AB98AB8801C000F03C
:020908001200DB
:0C090A00000E0F0121B3010E006E120060
:0A091600000E82B8010E006E120000
:0A092000000E82BA010E006E1200F4
:0A092A00000E82B2010E006E1200F2
:0A093400000E82B6010E006E1200E4
:0A093E00000E82B0010E006E1200E0
:0A094800000E80B0010E006E1200D8
:0A095200000E84B0010E006E1200CA
:10095C000C6A0E6A0250D8A4C7EF04F001C002F072
:10096C0000C001F0006A0E860250D8A4C7EF04F054
:10097C0001C002F0016A0E960E880250D8B4D9EF6D
:10098C0004F00E50035ED8A4D8A0DEEF04F0D8908B
:10099C0002BEE3EF04F0003601360236032ECEEF32
:1009AC0004F0DEEF04F0010E0C6E00DEE6EF04F056
:1009BC00020E0C6EE7DDE6EF04F0040E0C6ED2DDD9
:0209CC00120017
:1009CE008A0E0001B66F010EB76FFD0EB86F000EE6
:1009DE00B96FF80EBA6F080EBB6F000EBC6F000E2B
:1009EE00BD6FCE0EAE6F070EAF6F000EB06F000E66
:1009FE00B16FA60EB26F070EB36F000EB46F000E7E
:100A0E00B56FAC8A900EAB6E948E949C9EAA03D05A
:080A1E00AECF00F0FBD712007F
:100A2600640E00019E6F020E9F6F000EA06F000EF7
:100A3600A16FD80EA26F070EA36F000EA46F000E53
:100A4600A56F1A0E966F050E976F000E986F000E23
:100A5600996FF80E726F050E736FF70E746F000EB6
:100A6600756FBC0E766F060E776FF70E786F000EF9
:100A7600796FF40E6E6F030E6F6F000E706F000EBF
:100A8600716F949894968B988B9694889486C79E4B
:080A9600C79C380EC66E120069
:100A9E007A0E0001B66F010EB76FFD0EB86F000E25
:100AAE00B96FB00EBA6F070EBB6F000EBC6F000EA3
:100ABE00BD6FC40EAE6F070EAF6F000EB06F000E9F
:100ACE00B16F0A0EB26F090EB36F000EB46F000E47
:100ADE00B56F0F01218B900E226F98849892A4AA65
:0A0AEE0003D01DCF00F0FBD712006B
:080AF8000B6A0B86FF0E1200D1
:100B00000CB0C2EF05F00CA268EF06F00E6A000E02
:100B10000264D9EF05F0F00E0214D8A4A4EF05F09A
:100B2000023A01380F0B02260138F00B016E003833
:100B30000F0B01260038F00B006E08380F0B002653
:100B40000838F00B086E0E84D89002BEBDEF05F099
:100B500008360036013602360E2A02BEBDEF05F019
:100B600008360036013602360E2A02BEBDEF05F009
:100B700008360036013602360E2A0E5003645EEF48
:100B800006F0035E0BBC08AE63EF06F0D880800E63
:100B900008640030000E002201220222D8A063EF78
:100BA00006F0023201320032034A68EF06F063EFCA
:100BB00006F001C002F000C001F008C000F0086AB1
:100BC000000E0E86026410EF06F0F00E0214D8A498
:100BD000F8EF05F0023A01380F0B02260138F00B4E
:100BE000016E00380F0B01260038F00B006E0E84EA
:100BF000D89002BEBDEF05F00036013602360E2A4F
:100C000002BEBDEF05F00036013602360E2A02BEE6
:100C1000BDEF05F00036013602360E2ABDEF05F0B5
:100C200001C002F000C001F0006A000E0E960E88AE
:100C300002643DEF06F0F00E0214D8A428EF06F08F
:100C4000023A01380F0B02260138F00B016E0E84B8
:100C5000D89002BEBDEF05F0013602360E2A02BE64
:100C6000BDEF05F0013602360E2A02BEBDEF05F0DB
:100C7000013602360E2ABDEF05F001C002F0016A0E
:100C8000000E0E8602646DEF06F0F00E0214D8A47A
:100C90004CEF06F0023A0E84D89002BEBDEF05F08C
:100CA00002360E2A02BEBDEF05F002360E2A02BE43
:100CB000BDEF05F002360E2ABDEF05F0010E0C6EF9
:100CC00067DC70EF06F0020E0C6E52DC70EF06F07F
:100CD000040E0C6E51DC70EF06F0080E0C6E6CDC2E
:020CE000120000
:100CE200E9C0F6FFEAC0F7FFEBC0F8FF0900F5CF55
:100CF200C3F00900F5CFC4F00900F5CFC5F0090033
:100D0200F5CFC6F0040E0001E925F66E000EEA21C9
:100D1200F76E000EEB21F86E0900F5CFBFF0090067
:100D2200F5CFC0F00900F5CFC1F00900F5CFC2F050
:100D3200080EE925F66E000EEA21F76E000EEB2191
:100D4200F86E0900F5CFCBF00900F5CFCCF0090021
:100D5200F5CFCDF00900F5CFCEF00C0EE925F66EF9
:100D6200000EEA21F76E000EEB21F86E0900F5CFB6
:100D7200CFF00900F5CFD0F00900F5CFD1F009008E
:100D8200F5CFD2F0100EE925F66E000EEA21F76ECD
:100D9200000EEB21F86E0900F5CFC7F00900F5CF80
:100DA200C8F00900F5CFC9F00900F5CFCAF012006A
:020DB20012002D
:100DB40021D0CF0EAF6EAC9408DE6BD0670EAF6E51
:100DC400AC9403DE66D0CF0EAF6EAC84FEDD61D092
:100DD400670EAF6EAC84F9DD5CD0440EAF6EAC84AC
:100DE400F4DD57D0220EAF6EAC84EFDD52D0060E88
:100DF400006E58D00001000E006EEC1908E100509E
:100E0400EB1905E1120EEA1902E1E951C00AD1E039
:100E1400000E006EEC1908E10050EB1905E1250EF7
:100E2400EA1902E1E951800AC9E0000E006EEC19EA
:100E340008E10050EB1905E14B0EEA1902E1E95112
:100E4400000AC1E0000E006EEC1908E10050EB1935
:100E540005E1960EEA1902E1E951000AB9E0000E33
:100E6400006EEC1908E10050EB1905E1E10EEA19F6
:100E740002E1E951000AB1E0EC51000A08E1EB514A
:100E8400010A05E1EA51C20A02E1E951000AAAE0B5
:100E9400AED78A0E9A6F010E9B6FFD0E9C6F000EEB
:060EA4009D6F006A1200C0
:100EAA009CC0E1FF9DC0E2FFE9C0E9FFEAC0EAFF9A
:100EBA00EECFE6FF9AC000F09BC001F019EC01F0FA
:040ECA00006A1200A8
:100ECE00E9C0ECF0EAC0EDF0EBC0EEF00BD0A00EF6
:100EDE00C86EA2DD44D0280EC86E9EDD40D0040E32
:100EEE00006E3FD0ECC0F6FFEDC0F7FFEEC0F8FF8E
:100EFE000900F5CF01F00900F5CF02F00900F5CF9A
:100F0E0003F00900F5CF04F00450000A08E1035085
:100F1E00010A05E10250860A02E10150A00AD7E05B
:100F2E00ECC0F6FFEDC0F7FFEEC0F8FF0900F5CFFD
:100F3E0001F00900F5CF02F00900F5CF03F009002A
:100F4E00F5CF04F00450000A08E10350060A05E14B
:100F5E0002501A0A02E10150800ABDE0C0D7000E0D
:040F6E00006E1200FF
:100F7200E9C0ECF0EAC0EDF0EBC0EEF00BD0A00E51
:100F8200C86E50DD44D0280EC86E4CDD40D0040E31
:100F9200006E3FD0ECC0F6FFEDC0F7FFEEC0F8FFE9
:100FA2000900F5CF01F00900F5CF02F00900F5CFF5
:100FB20003F00900F5CF04F00450000A08E10350E1
:100FC200010A05E10250860A02E10150A00AD7E0B7
:100FD200ECC0F6FFEDC0F7FFEEC0F8FF0900F5CF59
:100FE20001F00900F5CF02F00900F5CF03F0090086
:100FF200F5CF04F00450000A08E10350060A05E1A7
:1010020002501A0A02E10150800ABDE0C0D7000E68
:04101200006E12005A
:10101600E9C0ECF0EAC0EDF0EBC0EEF00BD0A00EAC
:10102600C86EFEDC44D0280EC86EFADC40D0040E32
:10103600006E3FD0ECC0F6FFEDC0F7FFEEC0F8FF44
:101046000900F5CF01F00900F5CF02F00900F5CF50
:1010560003F00900F5CF04F00450000A08E103503C
:10106600010A05E10250860A02E10150A00AD7E012
:10107600ECC0F6FFEDC0F7FFEEC0F8FF0900F5CFB4
:1010860001F00900F5CF02F00900F5CF03F00900E1
:10109600F5CF04F00450000A08E10350060A05E102
:1010A60002501A0A02E10150800ABDE0C0D7000EC4
:0410B600006E1200B6
:1010BA0038D00F0120870D0E1F6F040E1E6F218579
:1010CA00E9DC7ED00F012087060E1F6F820E1E6F8D
:1010DA002185E0DC75D00F012087030E1F6F400EBB
:1010EA001E6F2185D7DC6CD00F012087010E1F6F80
:1010FA00A00E1E6F2185CEDC63D00F012087010E62
:10110A001F6F150E1E6F2185C5DC5AD00F0120876F
:10111A001F6B8A0E1E6F2185BDDC52D0060E006E33
:10112A0059D0000E006E0001EC1908E10050EB19CD
:10113A0005E1120EEA1902E1E951C00ABAE0000E0D
:10114A00006EEC1908E10050EB1905E1250EEA19C9
:10115A0002E1E951800AB6E0000E006EEC1908E1DE
:10116A000050EB1905E14B0EEA1902E1E951000AB8
:10117A00B2E0000E006EEC1908E10050EB1905E12F
:10118A00960EEA1902E1E951000AAEE0000E006E7D
:10119A00EC1908E10050EB1905E1E10EEA1902E148
:1011AA00E951000AAAE0EC51000A08E1EB51010AF0
:1011BA0005E1EA51C20A02E1E951000AA7E0AED705
:1011CA0000017A0E9A6F010E9B6FFD0E9C6F000E46
:0611DA009D6F006A120087
:1011E00027D0CF0EAF6EAC94E7EC04F070D0670E52
:1011F000AF6EAC94E7EC04F06AD0CF0EAF6EAC8467
:10120000E7EC04F064D0670EAF6EAC84E7EC04F05A
:101210005ED0440EAF6EAC84E7EC04F058D0220EE2
:10122000AF6EAC84E7EC04F052D0060E006E58D0DE
:101230000001000E006EEC1908E10050EB1905E109
:10124000120EEA1902E1E951C00ACBE0000E006E6D
:10125000EC1908E10050EB1905E1250EEA1902E14D
:10126000E951800AC4E0000E006EEC1908E100505C
:10127000EB1905E14B0EEA1902E1E951000ABDE064
:10128000000E006EEC1908E10050EB1905E1960E16
:10129000EA1902E1E951000AB6E0000E006EEC190D
:1012A00008E10050EB1905E1E10EEA1902E1E9510C
:1012B000000AAFE0EC51000A08E1EB51010A05E138
:1012C000EA51C20A02E1E951000AA9E0AED78A0E4A
:1012D0009A6F010E9B6FFD0E9C6F000E9D6F006A52
:0212E0001200FA
:1012E20027D0CF0EAF6EAC94E7EC04F070D0670E4F
:1012F200AF6EAC94E7EC04F06AD0CF0EAF6EAC8464
:10130200E7EC04F064D0670EAF6EAC84E7EC04F057
:101312005ED0440EAF6EAC84E7EC04F058D0220EDF
:10132200AF6EAC84E7EC04F052D0060E006E58D0DB
:101332000001000E006EEC1908E10050EB1905E106
:10134200120EEA1902E1E951C00ACBE0000E006E6A
:10135200EC1908E10050EB1905E1250EEA1902E14A
:10136200E951800AC4E0000E006EEC1908E1005059
:10137200EB1905E14B0EEA1902E1E951000ABDE061
:10138200000E006EEC1908E10050EB1905E1960E13
:10139200EA1902E1E951000AB6E0000E006EEC190A
:1013A20008E10050EB1905E1E10EEA1902E1E95109
:1013B200000AAFE0EC51000A08E1EB51010A05E135
:1013C200EA51C20A02E1E951000AA9E0AED78A0E47
:1013D2009A6F010E9B6FFD0E9C6F000E9D6F006A4F
:0213E2001200F7
:1013E4000001E96BEA6BC3C000F0C4C001F019EC62
:1013F40001F000C0E9F0000E0001EA6FE9C000F05E
:06140400EAC001F0120035
:10140A000450000A12E10550000A0FE10650000AD2
:10141A000CE10750000A09E1FF0E006EFF0E016E93
:10142A007F0E026EFF0E036EA8D0086A096A075083
:10143A00D8B4B0EF0AF00350D8B4B5EF0AF00250AE
:10144A0006180A6E028E068E0E6A02C008F001C0E5
:10145A000CF000C00DF004500D5E0550D8A0053CFC
:10146A000C5E0650D8A0063C085E086A0C6A0D6A33
:10147A00D8A047EF0AF0D89002320132003208327F
:10148A00010E0E6E0750035ED8A054EF0AF07E0ECE
:10149A000E240326D8B0BAEF0AF05AEF0AF07E0EED
:1014AA000E240326D8A0BFEF0AF0180E0B6E0D36D5
:1014BA000C3608360036013602360E360450005E07
:1014CA000550D8A0053C015E0650D8A0063C025E35
:1014DA0006340E120EA075EF0AF00D8080EF0AF0A6
:1014EA00045000260550D8B0053C01260650D8B055
:1014FA00062802260D900B2E5CEF0AF0A6EF0AF0E2
:10150A00D8900036013602360E360450005E055079
:10151A00D8A0053C015E0650D8A0063C025E0634FF
:10152A000E10010B0D26D8B00C2AD8B4082AD8A45C
:10153A00A6EF0AF008320C320D32032AD8B4BAEFF9
:10154A000AF00AAE089E0850026E0C50016E0D5049
:10155A00006EC2EF0AF0010E7CEC05F0C2EF0AF051
:10156A00020EDCEC02F0C2EF0AF0040EBCEC02F050
:0C157A00C2EF0AF0080EC8EC02F01200EC
:10158600086A096A000E0762036448EF0BF002500E
:1015960006180A6E075003267E0ED8A0D9EF0AF069
:1015A600035ED8B04DEF0BF0DDEF0AF0035ED8A076
:1015B60052EF0BF0028E068E02C00EF001C00BF049
:1015C60000C00DF000500402F4CF0CF001500502EB
:1015D600F4CF00F0F3CF08F00402F3500C26F450D9
:1015E6000822000E00220D500502F3500C26F4507E
:1015F6000822000E002202500402F3500826F4507E
:10160600002202500502016A000E0122F350002654
:10161600F45001220D500602F3500826F450002221
:10162600026A000E012202220B500602F350002627
:10163600F4500122000E02220E500602F35001263B
:10164600F450022202BE30EF0BF0083600360136A7
:1016560002360306D8B452EF0BF043EF0BF0D880F6
:10166600800E08640030000E002201220222D8A05B
:1016760043EF0BF0023201320032034A4DEF0BF01A
:101686000AAE029E000E55EF0BF0010EDCEC02F0E6
:1016960055EF0BF0020EBCEC02F055EF0BF0040E0A
:0616A600C8EC02F0120086
:1016AC00025006180E6E086A096A0B6A035007642A
:1016BC0049EF0CF006500A6E068E028E03500B6E2C
:1016CC000750036E000E0B6499EF0BF00B50075E86
:1016DC00D8B43AEF0CF0070E076408EF0CF0075E75
:1016EC0000C008F001C000F002C001F0026A074E11
:1016FC003AEF0CF00764DDEF0BF0075E00C008F06A
:10170C0001C000F0016A074E3AEF0CF00764BBEF22
:10171C000BF0075E00C008F0006A074E3AEF0CF0C1
:10172C000764A2EF0BF00AC002F005C001F004C080
:10173C0000F0086A66EF0DF0030E0764ADEF0BF0D6
:10174C00075E08380F0B086E074E3AEF0CF0D89076
:10175C000832074E3AEF0CF0D8900832074E3AEFA9
:10176C000CF0D89008323AEF0CF0030E0764CCEF73
:10177C000BF0075E08380F0B086E0038F00B0826CC
:10178C0000380F0B006E074E3AEF0CF0D890003279
:10179C000832074E3AEF0CF0D89000320832074E60
:1017AC003AEF0CF0D890003208323AEF0CF0030EFE
:1017BC000764F4EF0BF0075E08380F0B086E003867
:1017CC00F00B082600380F0B006E0138F00B0026CA
:1017DC0001380F0B016E074E3AEF0CF0D890013226
:1017EC0000320832074E3AEF0CF0D890013200323A
:1017FC000832074E3AEF0CF0D89001320032083222
:10180C003AEF0CF0030E076425EF0CF0075E083876
:10181C000F0B086E0038F00B082600380F0B006E0B
:10182C000138F00B002601380F0B016E0238F00B5B
:10183C00012602380F0B026E074E3AEF0CF0D890CF
:10184C000232013200320832074E3AEF0CF0D890D7
:10185C000232013200320832074E3AEF0CF0D890C7
:10186C000232013200320832096A000E0EAE2EEF3F
:10187C000DF0081E001E011E021E082A0022012265
:10188C0002222EEF0DF00750D8A44FEF0CF066EFAC
:10189C000DF0096A02C00AF0028E068E0750035C36
:1018AC00076ED8B421EF0DF0070E0764EFEF0CF0C4
:1018BC00075E0450096E0550046E0650056E066AEC
:1018CC00074E21EF0DF0070E0764C4EF0CF0075E16
:1018DC000450096E0550046E056A074E21EF0DF099
:1018EC00070E0764A2EF0CF0075E0450096E046A41
:1018FC00074E21EF0DF0070E076489EF0CF00AC0BC
:10190C0002F066EF0DF0030E076494EF0CF0075E27
:10191C0009380F0B096E074E21EF0DF0D8900932E4
:10192C00074E21EF0DF0D8900932074E21EF0DF044
:10193C00D890093221EF0DF0030E0764B3EF0CF0D1
:10194C00075E09380F0B096E0438F00B09260438B2
:10195C000F0B046E074E21EF0DF0D89004320932B4
:10196C00074E21EF0DF0D89004320932074E21EFCB
:10197C000DF0D8900432093221EF0DF0030E0764FC
:10198C00DBEF0CF0075E09380F0B096E0438F00B17
:10199C00092604380F0B046E0538F00B04260538A5
:1019AC000F0B056E074E21EF0DF0D8900532043267
:1019BC000932074E21EF0DF0D8900532043209326E
:1019CC00074E21EF0DF0D89005320432093221EF89
:1019DC000DF0030E07640CEF0DF0075E09380F0BCA
:1019EC00096E0438F00B092604380F0B046E053809
:1019FC00F00B042605380F0B056E0638F00B052688
:101A0C0006380F0B066E074E21EF0DF0D8900632FC
:101A1C00053204320932074E21EF0DF0D890063210
:101A2C00053204320932074E21EF0DF0D890063200
:101A3C00053204320932086A000E0EAE2EEF0DF09C
:101A4C00091E041E051E061E092A04220522062252
:101A5C00095008260450002205500122065002228B
:101A6C000EBE45EF0DF0D8A054EF0DF0023201324E
:101A7C0000320832033E54EF0DF060EF0DF0D8B099
:101A8C005AEF0DF0000E081E001E011E021E082A41
:101A9C000022012202220A7E5AEF0DF0010E0C6E7A
:101AAC0080EC05F068EF0DF0020E0C6E80EC05F08A
:101ABC0068EF0DF0040E0C6EBCEC02F068EF0DF04C
:061ACC00000E0C6E12007A
:101AD2000050086E0150006E016A026A036A0B6AC6
:101AE2000C6A960E036E0A6A00C001F008C000F08C
:0A1AF200086A026AAEEC04F012006C
:101AFC000001F16BF26BEAC0EFF0EBC0F0F0E9C063
:101B0C0000F000360090D1C0E1FFD2C0E2FF00C06F
:101B1C00E6FFCFC000F0D0C001F019EC01F000508E
:101B2C000001F113000EF213ECC000F0EDC001F057
:101B3C00010EEC5F000EED5B0050011018E0D1C0FF
:101B4C00E1FFD2C0E2FFEFC0E9FFF0C0EAFFEECF49
:101B5C00E6FFCFC000F0D0C001F019EC01F000504E
:101B6C000001F113000EF213EF4BF02BDDD7EE5109
:101B7C00000A06E1BFC000F0C0C001F019EC01F092
:101B8C000001EE51010A06E1CBC000F0CCC001F01F
:0E1B9C0019EC01F0F1C000F0F2C001F01200EF
:101BAA00090E0B6E1E0E0C6EE40E0D6E0D2EFED778
:0C1BBA000C2EFCD70B2EFAD700001200F6
:101BC6000001F16BF26BEAC0EFF0EBC0F0F0E9C098
:101BD60000F0003600900080D1C0E1FFD2C0E2FFE5
:101BE60000C0E6FFCFC000F0D0C001F019EC01F054
:101BF60000500001F113000EF213010EEC5F000E0F
:101C0600ED5BEC51ED1116E0C9C0E1FFCAC0E2FF81
:101C1600010EE66EC7C000F0C8C001F019EC01F075
:101C2600EFC0E1FFF0C0E2FF00C0E6FF0001EF4BAE
:101C3600F02BE3D7C9C0E1FFCAC0E2FFE66AC7C01E
:101C460000F0C8C001F019EC01F0EFC0E1FFF0C0F0
:101C5600E2FF00C0E6FF0001EE51000A06E1BFC048
:101C660000F0C0C001F019EC01F00001EE51010ACC
:101C760006E1CBC000F0CCC001F019EC01F0F1C0D8
:081C860000F0F2C001F01200B1
:101C8E00E9C004F0EAC005F004C002F005C003F09C
:101C9E00044A052AEBC000F0ECC001F00001EB4B4A
:101CAE00EC2B00C0E9FF01C0EAFF02C0E1FF03C058
:101CBE00E2FFEECFE6FF02C0E9FF03C0EAFFEE52FD
:0E1CCE0001E0E2D7E9C000F0EAC001F0120028
:101CDC000A6A0350D8A40A800750D8A40A820A5072
:101CEC00D8B4D1EF0EF0030AD8B48AEF0EF00AB0D4
:101CFC0085EF0EF006AECFEF0EF0CDEF0EF002AE8C
:101D0C00CDEF0EF0CFEF0EF00250800B0A6E029E5C
:101D1C000650800B069E0A18D8B49BEF0EF00A50A2
:101D2C00D8B4CDEF0EF0CFEF0EF00750035CD8B463
:101D3C00A5EF0EF0D8A0C1EF0EF0C7EF0EF00650D5
:101D4C00025CD8B4AFEF0EF0D8A0C1EF0EF0C7EF25
:101D5C000EF00550015CD8B4B9EF0EF0D8A0C1EF6D
:101D6C000EF0C7EF0EF00450005CD8B4D1EF0EF0BB
:101D7C00D8B0C7EF0EF00A52D8B4CFEF0EF0CDEFBB
:101D8C000EF00A52D8B4CDEF0EF0CFEF0EF0D88093
:0E1D9C001200D8901200D880D88412001200D5
:101DAA000D6A086A0050D8B4000C04180A6E0ABEFC
:101DBA000D1E0B6A04AE02D0041E042A00AE02D025
:101DCA00001E002A005004100A6E0ABE1FD00450DA
:101DDA00085E003600340836045008260036060E1F
:101DEA000C6E00340836045000B0085E00A00826C5
:101DFA0000360C2EF6D700A008260BB015D00DAE73
:101E0A00000C001E002A081E082A000C04AE09D085
:101E1A0000BE04D00050086E006AF1D7006A002A9A
:101E2A00000C001E0B2AD3D7082A0450085CD8A439
:0E1E3A00E6D7086A002A00AEE2D7FF0C1200BD
:101E4800D4C06DF0D3C06AF00001D451010A08E192
:101E58006A51020A05E1A20E6B6F7C0E6C6F25D0E9
:101E68006D51010A08E16A51010A05E1660E6B6FBE
:101E7800780E6C6F1AD06D51010A08E16A51020A96
:101E880005E1580E6B6F640E6C6F0FD06D51010A2F
:101E980008E16A51010A05E19C0E6B6F600E6C6FD8
:0C1EA80004D0660E6B6F780E6C6F120099
:101EB4001ED0D4C0E9F0D5C0EAF0D6C0EBF00BECEC
:101EC40008F020D0D4C0E9F0D5C0EAF0D6C0EBF0D9
:101ED400B9EC07F017D0D4C0E9F0D5C0EAF0D6C009
:101EE400EBF067EC07F00ED0010E006E0BD0000192
:101EF400D351000ADEE0D351010AE4E0D351020ACF
:061F0400EAE0F2D7120032
:101F0A00D3C0D5F0D4C0D6F0F2EC09F0BEC0E9F0E7
:101F1A00D50EEA6F000EEB6F020EEC6F000EED6F3E
:061F2A00EE6BE7DD120082
:101F30006CC000F0016AFF0E0014006E00C0D5F006
:101F4000FF0E00016B15D66FF2EC09F0BEC0E9F090
:101F5000D50EEA6F000EEB6F020EEC6F000EED6F08
:101F6000010EEE6FCBDD21DEBEC0E9F0D70E000121
:101F7000EA6F000EEB6F060EEC6F000EED6FEE6B6E
:101F800022DED7C0DDF0000E0001DE6FDDC001F003
:101F9000006A00C0DDF001C0DEF0D8510012000E72
:101FA000011200C0DDF001C0DEF093DD000E046E12
:101FB000FF0E056E7F0E066E8E0E076E05EC0AF0A4
:101FC000000E046E000E056E2F0E066E860E076E56
:101FD000C3EC0AF0000E046E000E056EB40E066E21
:101FE000840E076E56EC0BF000C0E5F001C0E6F081
:101FF00002C0E7F003C0E8F0DAC0DFF0000E000135
:10200000E06FDFC001F0006A00C0DFF001C0E0F067
:10201000DB510012000E011200C0DFF001C0E0F041
:1020200058DD000E046EFF0E056E7F0E066E8E0EDE
:10203000076E05EC0AF0000E046E000E056E480EE9
:10204000066E850E076EC3EC0AF000C0E1F001C019
:10205000E2F002C0E3F003C0E4F0D3C0E1FFD4C07B
:10206000E2FFE5C0E6FFE6C0E6FFE7C0E6FFE8C046
:10207000E6FF040E0001D325E16E000ED421E26ECE
:10208000E1C0E6FFE2C0E6FFE3C0E6FFE4C0E6FF32
:0220900012003C
:102092002FD0D4C0E9F0D5C0EAF0D6C0EBF0D7C05B
:1020A200ECF071EC09F032D0D4C0E9F0D5C0EAF01E
:1020B200D6C0EBF0D7C0ECF0F0EC08F027D0D4C0DB
:1020C200E9F0D5C0EAF0D6C0EBF0D7C0ECF05DEC99
:1020D20008F01CD0D4C0E9F0D5C0EAF0D6C0EBF0CD
:1020E200D7C0ECF0DAEC06F011D0010E006E0ED083
:1020F2000001D351000ACDE0D351010AD5E0D351FA
:0E210200020ADDE0D351100AE5E0EFD712002B
:102110000001DF6BE06BD3C0DBF0D4C0DCF0D5C0D6
:10212000DDF0D6C0DEF0DE51FF0A08E1DD51FF0A26
:1021300005E1DC51FF0A02E1DB51FF0A0CE1D7C0E7
:10214000E9F0D8C0EAF0620EEB6F000EEC6F9FDD95
:10215000030E006EEBD1010ED96FDDAF0ED0800EF5
:10216000DD19006E00C0DDF0D92BD7C0E1FFD8C06B
:10217000E2FF2D0EE66ED74BD82B000E006EDE1957
:1021800008E10050DD1905E10050DC1902E1DB51E6
:10219000000A0BE1D7C0E9F0D8C0EAF0600EEB6F9F
:1021A000000EEC6F74DD006AC1D1DE51FF0A08E158
:1021B000DD51000A05E1DC51000A02E1DB51000AB1
:1021C0000CE1D7C0E9F0D8C0EAF0580EEB6F000E72
:1021D000EC6F5DDDD9C000F0A9D1000E046E000ED9
:1021E000056E000E066E7F0E076EDBC000F0DCC0D1
:1021F00001F0DDC002F0DEC003F070DD010ED8B0EA
:10220000000E006E00521CE0DBC000F0DCC001F0EC
:10221000DDC002F0DEC003F0000E046E000E056E9D
:10222000200E066E820E076EC3EC0AF000C0DBF0D3
:1022300001C0DCF002C0DDF003C0DEF0E007CDD766
:10224000000E046E000E056E200E066E820E076EE6
:10225000DBC000F0DCC001F0DDC002F0DEC003F046
:102260003DDD000ED8B0010E006E00521CE0DBC058
:1022700000F0DCC001F0DDC002F0DEC003F0CD0EE6
:10228000046ECC0E056E4C0E066E7B0E076EC3EC14
:102290000AF000C0DBF001C0DCF002C0DDF003C0DA
:1022A000DEF0E02BCDD7FF0EDB15086EFF0EDC1540
:1022B000096E7F0EDD150A6E000EDE150B6E08C06E
:1022C00004F009C005F00AC006F00BC007F00436A0
:1022D0000490053606360736000EDB15006E000E3C
:1022E000DC15016E000EDD15026EFF0EDE15036EAD
:1022F00000C0DBF001C0DCF002C0DDF003C0DEF0A6
:102300000450DB11006E0550DC11016E0650DD112A
:10231000026E0750DE11036E00C0DBF001C0DCF07E
:1023200002C0DDF003C0DEF07F0EDE5D006E00C097
:10233000DAF0010EDE6F00C004F0DBC000F0DCC09C
:1023400001F0DDC002F0DEC003F0045007E000360B
:102350000090013602360336FF0FF8D700C0DBF0DD
:1023600001C0DCF002C0DDF003C0DEF0D7C0E1FF49
:10237000D8C0E2FFDE51300FE66ED74BD82B800E6F
:10238000E019006E800E010A005C08E3800E060A68
:10239000006E800EE019005C01E30AD0D7C0E1FFB7
:1023A000D8C0E2FF2E0EE66ED74BD82B010EDF6FA2
:1023B000060EDA6FDA51000A54E0DE6BDBC000F083
:1023C000DCC001F0DDC002F0DEC003F0003600909A
:1023D00001360236033600360090013602360336E7
:1023E000DB510026DC510122DD510222DE510322A5
:1023F00000C0DBF001C0DCF002C0DDF003C0DEF0A5
:10240000DBC000F0DCC001F0DDC002F0DEC003F094
:102410000036009001360236033600C0DBF001C002
:10242000DCF002C0DDF003C0DEF0D7C0E1FFD8C0B1
:10243000E2FFDE51300FE66ED74BD82BDF51000A9A
:102440000EE1E007E051000A0AE1D7C0E1FFD8C081
:10245000E2FF2E0EE66ED74BD82B010EDF6FDA07A8
:10246000A9D7FF0ED725E96EFF0ED821EA6EEE50F0
:10247000300A05E1010ED75F000ED85BF2D7FF0EE0
:10248000D725E96EFF0ED821EA6EEE502E0A04E140
:10249000010ED75F000ED85BE051000A41E0D7C0C3
:1024A000E1FFD8C0E2FF650EE66ED74BD82B800E59
:1024B000E019006E800E000A005C0BE2D7C0E1FF5D
:1024C000D8C0E2FF2D0EE66ED74BD82BE0510008A6
:1024D000E06FE0C0DAF0800E090A006E800EE019AD
:1024E000005C0EE20A0E046EDAC000F05EDCD7C0BB
:1024F000E1FFD8C0E2FF0050300FE66ED74BD82B7B
:102500000A0E046EDAC000F050DC08C000F0D7C03C
:10251000E1FFD8C0E2FF0050300FE66ED74BD82B5A
:0E252000D7C0E1FFD8C0E2FFE66A006A1200F1
:10252E00D3C0D6F0D4C0D7F00D0E0001D86F0A0E6E
:10253E00D96F3AD0D6C0E9F0D7C0EAF055EC07F023
:10254E003ED0D6C0E9FFD7C0EAFFEE520AE0D6C0B1
:10255E00E9F0D7C0EAF055EC07F00001D64BD72BC7
:10256E00F0D72DD0D6C0E9FFD7C0EAFFEE520AE071
:10257E00D6C0E9F0D7C0EAF055EC07F00001D64B13
:10258E00D72BF0D70001D80EE96F000EEA6F55EC8D
:10259E0007F0D90E0001E96F000EEA6F55EC07F057
:1025AE000ED0060E006E0CD00001D551000AC2E00E
:1025BE00D551010AC6E0D551020AD4E0F2D7006A1D
:0225CE001200F9
:1025D000D9C0BEF0D6C0E9F0D7C0EAF0D8C0EBF061
:1025E00071EC06F0D3C0E9F0D4C0EAF0D5C0EBF04E
:0625F000D9EC06F0120018
:1025F6000001D36B2D0ED46F280ED56F000ED66F4B
:1026060056DC100E0001D36F800ED46F250ED56FE9
:10261600000ED66FD76F3ADD2B0E0001D36F000E7A
:10262600D46F020ED56F80DF090E0B6E1E0E0C6E78
:10263600E40E0D6E0D2EFED70C2EFCD70B2EFAD700
:04264600000012007E
:10264A000900F5CFE6FF0006FBE10106F9E11200F9
:10265A007A0E0001D36F000ED46F65DC410ED36F82
:10266A00000ED46F010ED56F5DDF7AC0D3F07BC048
:10267A00D4F07CC0D5F07DC0D6F0820E0001D76FB1
:10268A00000ED86F40DD820ED36F000ED46F010E9C
:10269A00D56F48DF550E0001D36F000ED46F020EBE
:1026AA00D56F40DF1A0E0001D36F000ED46F010EF2
:1026BA00D56F38DF7EC0D3F07FC0D4F080C0D5F0AC
:1026CA0081C0D6F0820E0001D76F000ED86F1BDDD5
:1026DA00820ED36F000ED46F010ED56F23DF150E55
:1026EA000001D36F000ED46F020ED56F1BDF290EC7
:1026FA000B6E960E0C6E7F0E0D6E0D2EFED70C2EE7
:08270A00FCD70B2EFAD71200D8
:10271200600E0001D36F270ED46F000ED56F190E15
:10272200D66F280ED76F000ED86F700ED96F4FDF9D
:10273200010ED36F010ED46F24EC0FF0E60ED36FAF
:10274200100E006E000E0010D46F85EC0FF0120018
:0E27520019EC14F04FDFDCDF7FDFFED7FFD77E
:1028320010EE15F0590E006E010E016EC00EF66E0E
:0E284200270EF76E000EF86E25EC13F0120054
:10276000A601FD009801FD006C01FD004201FD0085
:102770003401FD005E01FD005001FD000802FD0076
:10278000FA01FD002402FD001602FD00EC01FD002F
:10279000480900003E090000520900003409000009
:1027A00016090000200900002A0900009C0700000B
:1027B000F6020000CC030000EC020000C40200009E
:0527C000202552480035
:1027C500202D2D2D2048756D6964697479203A2076
:0127D5000003
:1027D600202D2D2D2053797374656D20496E6974F3
:0627E600202D2D2D200026
:1027EC00202D2D2D2054656D706572617475726588
:0427FC00203A20005F
:0328000020430072
:04280300494E4600F4
:0428070000000000CD
:02280B0030009B
:04280D004E614E00CA
:0428110000000000C3
:0128150001C1
:022816006678E2
:0128180001BE
:10281900D8070000F40300001A050000BC06F70001
:04282900F805F700B7
:04282D00A086010080
:020000040030CA
:0E00000015137F7CF98B91FFFFC0FFE0FF40DE
:00000001FF
